:100000000C9438000C9442000C9442000C94420072
:100010000C9442000C9442000C9442000C94420058
:100020000C9442000C9442000C9442000C94420048
:100030000C9442000C9442000C9442000C94420038
:100040000C9442000C9442000C9442000C94420028
:100050000C9442000C9442000C9442000C94420018
:100060000C9442000C9442000C9442000C94420008
:1000700011241FBECFEFD4E0DEBFCDBF0E944400ED
:100080000C947A000C94000080E885BF80B78062F1
:1000900080BFA0E0B0E1E3E0F0E11C922FEF8FEF32
:1000A0009EE0215080409040E1F700C000001082A7
:1000B0002FEF8FEF9EE0215080409040E1F700C08D
:1000C0000000EBCF90BD89B988E18AB986E880BD90
:1000D00008955D9BFECF8CB908955F9BFECF8CB1D8
:1000E00008950E94690080E090E008950E946D00EC
:0800F00090E00895F894FFCFA1
:00000001FF
