:100000000C9438000C9455000C9455000C94550039
:100010000C9455000C9455000C9455000C9455000C
:100020000C9455000C9455000C9455000C945500FC
:100030000C9455000C9455000C9455000C945500EC
:100040000C9455000C9455000C9455000C945500DC
:100050000C9455000C9455000C9455000C945500CC
:100060000C9455000C9455000C9455000C945500BC
:1000700011241FBECFEFD4E0DEBFCDBF11E0A0E062
:10008000B1E0EEE8F4E002C005900D92AC30B107AB
:10009000D9F721E0ACE0B1E001C01D92A631B20772
:1000A000E1F70E9457000C9445020C9400008FE188
:1000B00090E00E946D0081E60E94740061E870E0AB
:1000C0008CE790E00E94850086E091E00E94CF00DE
:1000D0000E9478000E947400FBCF90BD89B988E12E
:1000E0008AB986E880BD08955D9BFECF8CB90895DE
:1000F0005F9BFECF8CB108950E94740080E090E079
:1001000008950E94780090E008950F931F93CF9375
:10011000DF93EC018B01892B51F4672B41F4E0E074
:10012000F0E0CF01DF91CF911F910F9108956EE024
:1001300070E081E090E00E94FB00FC01892B79F3E4
:1001400080E883830115110571F01387028781E828
:10015000838380910C0190910D01892B21F4F09300
:100160000D01E0930C012097E1F2D187C0878381D4
:100170008260838380910E0190910F01892B89F613
:10018000F0930F01E0930E01809110019091110105
:10019000892B39F6F0931101E0931001C2CF0F9330
:1001A0001F93CF93DF93E0910E01F0910F01238114
:1001B00000E010E021FD0EC00FEF1FEFC801DF913E
:1001C000CF911F910F9108950995892B11F00FEF91
:1001D0001FEFCE01EC01899160910E0170910F012A
:1001E000DB011896ED91FC918111EECF8AE0099523
:1001F000892B21F3E1CF0F931F93CF93DF93869F3A
:100200008001879F100D969F100D1124C8010E9438
:100210001701EC01009729F0A80160E070E00E944E
:100220003E02CE01DF91CF911F910F9108950F9360
:100230001F93CF93DF939C01029710F422E030E0EC
:10024000E0911201F091130180E090E0A0E0B0E0B5
:10025000309791F4009709F448C0821B930B8430C7
:100260009105D0F58A819B816115710581F1FB01B2
:1002700093838283FE0111C04081518102811381E9
:1002800042175307D8F04217530799F4109761F0BB
:1002900012960C93129713961C933296CF01DF910E
:1002A000CF911F910F9108950093120110931301A4
:1002B000F4CF009751F04817590738F0AC01DB0133
:1002C000CA01BD01DF01F801C3CFEF01F9CF90935F
:1002D000130180931201CECFFE01E80FF91F219385
:1002E0003193029799838883D9CF4091140150911B
:1002F00015014115510541F440910201509103014E
:1003000050931501409314018091000190910101D7
:10031000009741F48DB79EB760910401709105017B
:10032000861B970B4817590708F0B8CF841B950B0D
:100330008217930708F4B2CFB9016E5F7F4F86171B
:10034000970708F4ABCF640F751F70931501609386
:100350001401FA0121933193A1CFCF93DF939C0134
:100360000097E9F0FC01329713821282C0911201CA
:10037000D0911301DE0180E090E02097A1F480810C
:100380009181280F391F80911401909115018217D6
:10039000930709F068C0F0931501E0931401DF9111
:1003A000CF910895DA01AE17BF0708F042C0129648
:1003B0004D915C911397CD014115510599F7DC01E1
:1003C0001396FC93EE9312974D915D919D01240F2E
:1003D000351FE217F30781F4208131812E5F3F4FF3
:1003E000240F351FDC0111963C932E93228133811B
:1003F00013963C932E931297E0E0F0E08A819B8164
:100400000097B1F5DE018D919D918A0F9B1F209180
:100410001401309115012817390709F6309759F55D
:100420001092130110921201D0931501C093140180
:10043000B6CFB383A28340815181240F351FA21709
:10044000B30771F44E5F5F4F2D913C911197240FCC
:10045000351F3183208312962D913C913383228363
:10046000009709F0ACCFF0931301E093120197CFFE
:10047000FE01EC01C3CF13821282D6CFDC0101C092
:0E0480006D9341505040E0F70895F894FFCF7F
:0C048E00000016012000486569210D00E7
:00000001FF
