:100000000C9438000C9455000C9455000C94550039
:100010000C9455000C9455000C9455000C9455000C
:100020000C9455000C9455000C9455000C945500FC
:100030000C9455000C9455000C9455000C945500EC
:100040000C9455000C9455000C9455000C945500DC
:100050000C9455000C9455000C9455000C945500CC
:100060000C9455000C9455000C9455000C945500BC
:1000700011241FBECFEFD4E0DEBFCDBF12E0A0E061
:10008000B1E0E2E2FFE002C005900D92A430B107BA
:10009000D9F722E0A4E0B2E001C01D92A231B2077C
:1000A000E1F70E9457000C948F070C940000CDB725
:1000B000DEB728970FB6F894DEBF0FBECDBF8FE135
:1000C00090E00E94A20066EB70E081EB90E00E945D
:1000D00090028CE091E09F938F930E94DA0285B7A3
:1000E000806885BF80B7806280BF0E944A010E94FD
:1000F00056010F900F9001E111E00E9470012983D9
:100100003A834B835C836D837E838F8398879F9331
:100110008F818F938E818F938D818F931F930F93F8
:100120000E94DA022FEF8FE797E021508040904045
:10013000E1F700C000000F900F900F900F900F900C
:100140000F90DBCF90BD89B988E18AB986E880BD80
:1001500008955D9BFECF8CB908955F9BFECF8CB157
:1001600008950E94A90080E090E008950E94AD00EB
:1001700090E00895CF92DF92EF92FF920F931F933A
:10018000CF93DF938FE191E00E94F0020E94800202
:10019000C82ED92E0E94850200E010E0C0E0D0E019
:1001A0000F2EF5E3EF2EF1E0FF2EF02D06C00F5FCE
:1001B0001F4F011598E01907F9F00E948002282FBF
:1001C000392FF801F85E80834081481781F3332787
:1001D0003F932F931F924F931F930F93FF92EF9292
:1001E0000E94DA0221968DB79EB708960FB6F89452
:1001F0009EBF0FBE8DBFDBCF8C2D9D2D0E94850233
:10020000C12CD12C00E010E00F2EFEE6EF2EF1E025
:10021000FF2EF02D07C09FEFC91AD90AC11488E03C
:10022000D806F9F00E948002282F392FF601F85ED7
:100230008081821781F333273F932F931F928F93EF
:10024000DF92CF92FF92EF920E94DA020F5F1F4F70
:100250008DB79EB708960FB6F8949EBF0FBE8DBFA0
:10026000DACF1F930F93DF93CF938BEA91E09F93A5
:100270008F930E94DA020F900F900F900F900F90C3
:100280000F90DF91CF911F910F91FF90EF90DF9032
:10029000CF9008958D9A80E48FBD89E08EBD81E076
:1002A00090E09BBD8ABDB898C0980895E091000188
:1002B000F09101011082B099FECFB09BFECFE0918A
:1002C0000001F09101018081809307028081809379
:1002D0000602808180930502808180930402089544
:1002E000FF920F931F93CF93DF93CDB7DEB728977D
:1002F0000FB6F894DEBF0FBECDBFE0910001F091C4
:1003000001011082B099FECFB09BFECFA0910001F9
:10031000B09101010C912C91EC91FC90809107021D
:10032000281B330B80910602081B110B3323A4F109
:1003300044E6429FC001439F900D112467E570E0A1
:100340000E940C02262F372F11239CF144E6409F78
:10035000C001419F900D112464E570E00E940C02E1
:10036000462F572F80910502E81BFF0B8091040256
:100370006F2D681B770BDB016E2F7F2F8A2F9B2F32
:1003800028960FB6F894DEBF0FBECDBFDF91CF9198
:100390001F910F91FF90089544E6429FC001439F33
:1003A000900D11246EE570E00E940C02262F372F6D
:1003B000CBCF44E6409FC001419F900D11246BE5D7
:1003C00070E00E940C02462F572FCCCFCF93DF93C3
:1003D000CDB7DEB728970FB6F894DEBF0FBECDBFFE
:1003E0000E94700129833A8381E090E029813A815B
:1003F0002E31310514F480E090E028960FB6F89481
:10040000DEBF0FBECDBFDF91CF910895E091000117
:10041000F09101011082089597FB072E16F40094C5
:1004200007D077FD09D00E94200207FC05D03EF4DA
:10043000909581959F4F0895709561957F4F089590
:10044000AA1BBB1B51E107C0AA1FBB1FA617B707FA
:1004500010F0A61BB70B881F991F5A95A9F7809516
:100460009095BC01CD0108958F929F92AF92BF925B
:10047000CF92DF92EF92FF92CF93DF93EC016881EE
:1004800079818A819B81611571058105910521F42E
:1004900064E279ED8BE597E02DE133EF41E050E048
:1004A0000E94F50649015A019B01AC01A7EAB1E49B
:1004B0000E9414076B017C01ACEEB4EFA50194011E
:1004C0000E942207DC01CB018C0D9D1DAE1DBF1DBE
:1004D000B7FF03C00197A109B04888839983AA8315
:1004E000BB839F77DF91CF91FF90EF90DF90CF900C
:1004F000BF90AF909F908F9008950E94340208950E
:1005000082E091E00E9434020895A0E0B0E0809380
:10051000020190930301A0930401B0930501089593
:100520000F931F93CF93DF93EC018B01892B51F431
:10053000672B41F4E0E0F0E0CF01DF91CF911F9114
:100540000F9108956EE070E081E090E00E94070551
:10055000FC01892B79F380E883830115110571F083
:100560001387028781E883838091080290910902B2
:10057000892B21F4F0930902E09308022097E1F21D
:10058000D187C08783818260838380910A029091A2
:100590000B02892B89F6F0930B02E0930A028091FB
:1005A0000C0290910D02892B39F6F0930D02E09325
:1005B0000C02C2CFA0E0B0E0E0EEF2E00C9437070E
:1005C000AE014B5F5F4FFA0161917191AF01809174
:1005D0000A0290910B020E941C03E2E00C94530764
:1005E0000F931F93CF93DF93E0910A02F0910B02D8
:1005F000238100E010E021FD0EC00FEF1FEFC801C6
:10060000DF91CF911F910F9108950995892B11F0DA
:100610000FEF1FEFCE01EC01899160910A027091FA
:100620000B02DB011896ED91FC918111EECF8AE06F
:100630000995892B21F3E1CFABE0B0E0E2E2F3E0F2
:100640000C942A076C017B018A01FC011782168237
:10065000838181FFD9C19AE0592EF6012381F701E8
:1006600023FD859123FF81917F01811509F41FC12D
:10067000853239F423FD959123FF91917F019532C5
:1006800029F4B60190E00E946706E7CF30E0912C94
:10069000612C712CF0E27F1640F59B32D9F058F4B2
:1006A0009032D1F09332F1F09E3299F576FCFFC092
:1006B000689476F806C09D3291F09033C1F4689446
:1006C00070F8F70123FD959123FF91917F0191111E
:1006D000E1CF29C0689471F8689472F8F2CF6894F9
:1006E00073F8EFCF689474F8ECCF77FC1CC080ED02
:1006F000890F8A30C8F676FE05C0959C800D1124BE
:10070000982EDFCF659C800D1124682E689475F8B3
:10071000D8CF9C3619F4689477F8D3CF9C3409F479
:100720004BC0983671F2892F8F7D8554833008F441
:1007300045C0933609F466C0933709F469C0933510
:1007400009F475C0943619F0993609F09FC0F80184
:1007500077FE95C061917191819191918F01272DC3
:100760002F76822E97FF09C09095809570956195A0
:100770007F4F8F4F9F4F689487F82AE030E0AE019B
:100780004F5F5F4F5A010E9497068A19A82E86FE76
:10079000C4C0882D8E7FA91408F0BEC084FE11C18C
:1007A00082FC05C1F82DFE7E8F2EB92C882D86780F
:1007B000811509F4BFC000C131E083CF3115F9F0D4
:1007C000085F1F4F8FE3898388248394912CAE01A7
:1007D0004F5F5F4F5A01E89477F873FC03C08614AB
:1007E0009104B0F181149104D1F5611409F435CF6D
:1007F000B60180E290E00E9467066A94F6CF0C5F33
:100800001F4FE0CFF801808189830E5F1F4FDCCF3F
:10081000F801A190B1908F01692D70E076FC02C0C3
:100820006FEF7FEFC5010E945C064C01D4CFF80149
:10083000A190B1908F01692D70E076FC02C06FEF3E
:100840007FEFC5010E944A064C01689477F8C5CF36
:10085000B60180E290E00E9467066A94C0CFF5017D
:1008600077FC859177FE81915F01B60190E00E944F
:10087000670661106A94F1E08F1A9108B3CF619115
:100880007191072E000C880B990B68CF872CE89488
:1008900084F82AE030E0953739F1572D597F852EBD
:1008A000903799F058F49835A9F09F36D9F0F601B1
:1008B000868197812B96EFE00C9446079837B9F71D
:1008C00074FC05C020E130E00FC0689484F868949F
:1008D00082F8F8CF74FE03C0872D8660882E20E151
:1008E00032E002C028E030E0F80187FE10C06191DC
:1008F0007191819191918F01FE0131965F01AF015C
:100900000E9497068A19A82EE89487F840CF619133
:10091000719180E090E0EFCF882EBA2C84FE46CF14
:10092000FE01EA0DF11D8081803309F043C0282DBE
:10093000297E822E83FC0EC080FE4FC09A2CB614F6
:1009400018F4960C9B18B62C862D8B196B1408F492
:1009500080E0B80EB61408F042C06B1884FE41C0A7
:10096000B60180E390E00E94670682FE09C088E538
:1009700090E081FC02C088E790E0B6010E94670623
:10098000A914D8F1AA94B12C4FEFA41AB40ACE013D
:1009900001964C01A80EB91EF50182915F01B601C6
:1009A00090E00E9467068A149B04B1F71ECFB92C11
:1009B000882EB6CF82FC02C0B394BCCFB394B3945C
:1009C000B9CFB92C882EF2CEB60180E290E00E9419
:1009D000670673947614C0F3B7CF7B2CFBCF612CE2
:1009E000BDCF882D8678811559F280E281FC8BE29B
:1009F00087FC8DE2B60190E0C1CFB60180E390E0C4
:100A00000E9467069A94BCCF8FEF9FEF53CF0F934E
:100A10001F93CF93DF93869F8001879F100D969F32
:100A2000100D1124C8010E942305EC01009729F044
:100A3000A80160E070E00E945506CE01DF91CF91E1
:100A40001F910F9108950F931F93CF93DF939C01F4
:100A5000029710F422E030E0E0910E02F0910F02D4
:100A600080E090E0A0E0B0E0309791F4009709F4C6
:100A700048C0821B930B84309105D0F58A819B81FD
:100A80006115710581F1FB0193838283FE0111C021
:100A9000408151810281138142175307D8F04217D8
:100AA000530799F4109761F012960C9312971396CE
:100AB0001C933296CF01DF91CF911F910F91089532
:100AC00000930E0210930F02F4CF009751F04817D5
:100AD000590738F0AC01DB01CA01BD01DF01F801A3
:100AE000C3CFEF01F9CF90930F0280930E02CECFC8
:100AF000FE01E80FF91F21933193029799838883B0
:100B0000D9CF40911002509111024115510541F485
:100B10004091080150910901509311024093100235
:100B20008091060190910701009741F48DB79EB71F
:100B300060910A0170910B01861B970B48175907AA
:100B400008F0B8CF841B950B8217930708F4B2CF37
:100B5000B9016E5F7F4F8617970708F4ABCF640F1C
:100B6000751F7093110260931002FA012193319363
:100B7000A1CFCF93DF939C010097E9F0FC0132975E
:100B800013821282C0910E02D0910F02DE0180E02A
:100B900090E02097A1F480819181280F391F8091E6
:100BA0001002909111028217930709F068C0F09328
:100BB0001102E0931002DF91CF910895DA01AE1790
:100BC000BF0708F042C012964D915C911397CD017A
:100BD0004115510599F7DC011396FC93EE9312979A
:100BE0004D915D919D01240F351FE217F30781F4AC
:100BF000208131812E5F3F4F240F351FDC0111967C
:100C00003C932E932281338113963C932E9312971B
:100C1000E0E0F0E08A819B810097B1F5DE018D91E3
:100C20009D918A0F9B1F209110023091110228176D
:100C3000390709F6309759F510920F0210920E02FB
:100C4000D0931102C0931002B6CFB383A283408128
:100C50005181240F351FA217B30771F44E5F5F4F08
:100C60002D913C911197240F351F318320831296CB
:100C70002D913C9133832283009709F0ACCFF09300
:100C80000F02E0930E0297CFFE01EC01C3CF138257
:100C90001282D6CFFC010590615070400110D8F748
:100CA000809590958E0F9F1F0895DC0101C06D9374
:100CB00041505040E0F70895FC01615070400190B0
:100CC0000110D8F7809590958E0F9F1F08950F9370
:100CD0001F93CF93DF93182F092FEB018B8181FD99
:100CE00009C01FEF0FEF812F902FDF91CF911F9140
:100CF0000F91089582FF14C02E813F818C819D81C8
:100D0000281739073CF4E881F981CF0101969983CE
:100D1000888310838E819F8101969F838E83E3CF8A
:100D2000E885F985812F0995892BA1F3DACFFA019E
:100D3000AA27283051F1203181F1E8946F936E7F1A
:100D40006E5F7F4F8F4F9F4FAF4FB1E03ED0B4E00B
:100D50003CD0670F781F891F9A1FA11D680F791F4C
:100D60008A1F911DA11D6A0F711D811D911DA11D5D
:100D700020D009F468943F912AE0269F112430196D
:100D8000305D3193DEF6CF010895462F4770405D08
:100D90004193B3E00FD0C9F7F6CF462F4F70405DB7
:100DA0004A3318F0495D31FD4052419302D0A9F712
:100DB000EACFB4E0A6959795879577956795BA950C
:100DC000C9F700976105710508959B01AC010A2ED2
:100DD00006945795479537952795BA95C9F7620FA9
:100DE000731F841F951FA01D0895052E97FB1EF4E9
:100DF00000940E940C0757FD07D00E945E0707FC75
:100E000003D04EF40C940C075095409530952195E5
:100E10003F4F4F4F5F4F0895909580957095619526
:100E20007F4F8F4F9F4F08950E948007A59F900D81
:100E3000B49F900DA49F800D911D11240895B7FFBC
:100E40000C9414070E941407821B930B08952F9291
:100E50003F924F925F926F927F928F929F92AF924A
:100E6000BF92CF92DF92EF92FF920F931F93CF9397
:100E7000DF93CDB7DEB7CA1BDB0B0FB6F894DEBF2E
:100E80000FBECDBF09942A88398848885F846E8454
:100E90007D848C849B84AA84B984C884DF80EE809E
:100EA000FD800C811B81AA81B981CE0FD11D0FB6A7
:100EB000F894DEBF0FBECDBFED010895A1E21A2E5A
:100EC000AA1BBB1BFD010DC0AA1FBB1FEE1FFF1FEE
:100ED000A217B307E407F50720F0A21BB30BE40B3E
:100EE000F50B661F771F881F991F1A9469F7609585
:100EF0007095809590959B01AC01BD01CF0108953F
:100F0000A29FB001B39FC001A39F700D811D11244A
:100F1000911DB29F700D811D1124911D0895F894AB
:020F2000FFCF01
:100F22000010010000000000120220004865692143
:100F320000583A20256420593A2025640D0A0053AE
:100F420074617274696E67205352414D20746573E7
:100F5200742E2E2E00577269746520706861736555
:100F6200206572726F723A206578745F72616D5B90
:100F72002534645D203D2025303258202873686F67
:100F8200756C642062652025303258290A0052654A
:100F92007472696576616C20706861736520657230
:100FA200726F723A206578745F72616D5B2534648A
:100FB2005D203D2025303258202873686F756C649F
:100FC2002062652025303258290A005352414D20B3
:100FD2007465737420636F6D706C657465642077DB
:100FE200697468200A253464206572726F727320F6
:100FF200696E20777269746520706861736520611B
:101002006E64200A253464206572726F72732069DF
:101012006E2072657472696576616C2070686173A6
:04102200650A0A0051
:00000001FF
