:100000000C9460030C947D030C947D030C947D038D
:100010000C947D030C947D030C947D030C947D0360
:100020000C947D030C947D030C947D030C947D0350
:100030000C947D030C947D030C947D030C947D0340
:100040000C947D030C947D030C947D030C947D0330
:100050000C947D030C947D030C947D030C947D0320
:100060000C947D030C947D030C947D030C947D0310
:1000700000000000005C00000C000C007C287C28C4
:1000800058DC68002410480028542840000C000068
:10009000007884008478000054385400107C1000EC
:1000A00080400000101010000040000060100C00A4
:1000B00038543800487C40004864580044542C00B0
:1000C0001C107C005C5424003854240064140C0080
:1000D00068542C0048543800004800008048000054
:1000E0001028440028282800442810000454080040
:1000F00038445C00781478007C5428003844280088
:100100007C4438007C5444007C140400384474005F
:100110007C107C00447C440020403C007C106C003F
:100120007C4040007C187C0078103C00384438004B
:100130007C1408003844B8007C146800485424003B
:10014000047C04007C407C003C603C007C307C00F3
:100150006C106C000C700C0064544C00007C44006B
:100160000C106000447C00000804080080808000BF
:1001700000040800304878007C48300030484800CF
:1001800030487C00306850001078140090A8780047
:100190007C08700050744000808074007C106800FF
:1001A000447C4000781078007808700030483000B7
:1001B000F82810003048F80078100800505828003F
:1001C000083C4800384078003840380078207800F3
:1001D0004830480098A0780048685800107884009B
:1001E000007C00008478100008040804000000006F
:1001F0000000005F00000007000700147F147F1458
:10020000242A7F2A1223130864623649552250009B
:1002100005030000001C2241000041221C00082AA6
:100220001C2A0808083E080800503000000808088A
:100230000808006060000020100804023E51494593
:100240003E00427F400042615149462141454B31C9
:100250001814127F1027454545393C4A4949300159
:10026000710905033649494936064949291E0036B0
:100270003600000056360000000814224114141401
:10028000141441221408000201510906324979412F
:100290003E7E1111117E7F494949363E414141223E
:1002A0007F4141221C7F494949417F090901013EA3
:1002B000414151327F0808087F00417F41002040C2
:1002C000413F017F081422417F404040407F0204AB
:1002D000027F7F0408107F3E4141413E7F090909AA
:1002E000063E4151215E7F09192946464949493157
:1002F00001017F01013F4040403F1F2040201F7F00
:100300002018207F631408146303047804036151E8
:1003100049454300007F4141020408102041417FCC
:100320000000040201020440404040400001020479
:100330000020545454787F4844443838444444207E
:10034000384444487F3854545418087E0901020840
:100350001454543C7F0804047800447D400020403D
:10036000443D00007F10284400417F40007C041879
:1003700004787C0804047838444444387C14141409
:1003800008081414187C7C080404084854545420A9
:10039000043F4440203C4040207C1C2040201C3C2A
:1003A0004030403C44281028440C5050503C446499
:1003B000544C44000836410000007F0000004136E4
:1003C000080002010302010000000000000000001C
:1003D000065F5F0600000000070700070700001423
:1003E0007F7F147F7F1400242E6B6B3A120000462F
:1003F0006630180C666200307A4F5D377A48000428
:1004000007030000000000001C3E634100000000E4
:1004100041633E1C000000082A3E1C1C3E2A0808BE
:10042000083E3E0808000000A0E060000000000850
:100430000808080808000000006060000000006074
:1004400030180C060301003E7F594D7F3E000042EC
:10045000427F7F40400000627359496F660000226E
:100460006349497F360000181C16137F7F10002750
:100470006745457D3900003C7E4B497930000003DB
:100480006371190F070000367F49497F3600000667
:100490004F49693F1E000000006C6C000000000026
:1004A000A0EC6C00000000081C3663410000001442
:1004B00014141414140000004163361C08000002D8
:1004C0000351590F0600003E7F415D5D1F1E007CF9
:1004D0007E13137E7C0000417F7F49497F36001CDC
:1004E0003E634141632200417F7F41637F1C0041A5
:1004F0007F7F495D416300417F7F491D0103001CEF
:100500003E6341517372007F7F08087F7F000000C7
:10051000417F7F41000000307040417F3F0100413A
:100520007F7F081C776300417F7F41406070007FC0
:100530007F060C067F7F007F7F060C187F7F001CE4
:100540003E6341633E1C00417F7F49090F06001E48
:100550003F21717F5E0000417F7F19396F46002681
:10056000674D597B32000003417F7F410300007FCC
:100570007F40407F7F00001F3F60603F1F00007F83
:100580007F3018307F7F0063771C081C776300077B
:100590004F78784F0700006773594D47637100002B
:1005A0007F7F41410000000103060C18306000000D
:1005B00041417F7F000000080C0603060C08008004
:1005C000808080808080800000030704000000207D
:1005D0007454543C784000413F7F44447C38003898
:1005E0007C44446C280000307848493F7F40003804
:1005F0007C54545C180000487E7F49030200009838
:10060000BCA4A4F87C0400417F7F08047C7800002F
:10061000447D7D4000000040C484FD7D0000004119
:100620007F7F10386C440000417F7F400000007CD9
:100630007C0C180C7C78007C7C04047C78000038EE
:100640007C44447C38000084FCF8A4243C18001846
:100650003C24A4F8FC8400447C78441C1800004826
:100660005C54547424000000043E7F442400003C89
:100670007C40403C7C40001C3C60603C1C00003CDA
:100680007C6030607C3C00446C3810386C44009CCA
:10069000BCA0A0FC7C00004C64745C4C64000008AE
:1006A000083E7741410000000000777700000041DC
:1006B00041773E0808000002030103020301000025
:1006C00011241FBECFEFD4E0DEBFCDBF12E0A0E00B
:1006D000B1E0E6E8FBE102C005900D92A037B1075A
:1006E000D9F722E0A0E7B2E001C01D92AE37B20711
:1006F000E1F70E947F030C94C10D0C94000000D020
:1007000000D000D0CDB7DEB78FE190E00E94F003BB
:1007100064E074E08FEF93E00E94C20885E191E00D
:100720009F938F930E940C0985B7806885BF80B71F
:10073000806280BF0E9498040E94A4040E94AB05BE
:100740000E945D060E94510660E080E00E9434062F
:1007500086E0EFE0F1E0DE01119601900D928A95BE
:10076000E1F763E0CE0101960E94E4060E94A40531
:100770000F900F900EC063E0CE0101960E94160705
:100780002FEF8FEF92E0215080409040E1F700C0C2
:1007900000C00E94A705811571F30E9466070E94A0
:1007A0006B07082F192F60E080E00E9434060E943A
:1007B00051060130110551F00230110561F0012B95
:1007C00041F78AE191E00E94D406E3CF81E291E013
:1007D0000E94D406DECF88E291E00E94D406D9CFF1
:1007E00090BD89B988E18AB986E880BD08955D9B8E
:1007F000FECF8CB908955F9BFECF8CB108950E9407
:10080000F70380E090E008950E94FB0390E00895D4
:10081000CF92DF92EF92FF920F931F93CF93DF93CC
:100820008EE391E00E9422090E94B208C82ED92EC0
:100830000E94B70800E010E0C0E0D0E00F2EF4E521
:10084000EF2EF1E0FF2EF02D06C00F5F1F4F0115B8
:1008500098E01907F9F00E94B208282F392FF80103
:10086000F85E80834081481781F333273F932F93AD
:100870001F924F931F930F93FF92EF920E940C09C8
:1008800021968DB79EB708960FB6F8949EBF0FBEFF
:100890008DBFDBCF8C2D9D2D0E94B708C12CD12C94
:1008A00000E010E00F2EFDE8EF2EF1E0FF2EF02D1E
:1008B00007C09FEFC91AD90AC11488E0D806F9F019
:1008C0000E94B208282F392FF601F85E8081821726
:1008D00081F333273F932F931F928F93DF92CF9211
:1008E000FF92EF920E940C090F5F1F4F8DB79EB7CA
:1008F00008960FB6F8949EBF0FBE8DBFDACF1F9338
:100900000F93DF93CF938AEC91E09F938F930E9494
:100910000C090F900F900F900F900F900F90DF9198
:10092000CF911F910F91FF90EF90DF90CF9008959E
:100930008D9A80E48FBD89E08EBD81E090E09BBD03
:100940008ABDB898C0980895E0910001F091010126
:100950001082B099FECFB09BFECFE0910001F091E4
:100960000101808180937302808180937202808173
:10097000809371028081809370020895FF920F939B
:100980001F93CF93DF93CDB7DEB728970FB6F894B8
:10099000DEBF0FBECDBFE0910001F09101011082DA
:1009A000B099FECFB09BFECFA0910001B0910101A4
:1009B0000C912C91EC91FC9080917302281B330BCD
:1009C00080917202081B110B3323A4F144E6429F6D
:1009D000C001439F900D112467E570E00E943E081E
:1009E000262F372F11239CF144E6409FC001419FE1
:1009F000900D112464E570E00E943E08462F572FA9
:100A000080917102E81BFF0B809170026F2D681BB3
:100A1000770BDB016E2F7F2F8A2F9B2F28960FB627
:100A2000F894DEBF0FBECDBFDF91CF911F910F9124
:100A3000FF90089544E6429FC001439F900D11240A
:100A40006EE570E00E943E08262F372FCBCF44E69C
:100A5000409FC001419F900D11246BE570E00E9402
:100A60003E08462F572FCCCFCF93DF93CDB7DEB7BD
:100A700028970FB6F894DEBF0FBECDBF0E94BE040C
:100A800029833A834B835C8389819A81823E2FEF4D
:100A900092076CF04F97B4F48B819C818F31910554
:100AA000A4F4823E9F4FA4F084E090E002C080E076
:100AB00090E028960FB6F894DEBF0FBECDBFDF9151
:100AC000CF91089581E090E0F4CF82E090E0F1CF03
:100AD00083E090E0EECFCF93DF93CDB7DEB72897DA
:100AE0000FB6F894DEBF0FBECDBF0E94BE042983AF
:100AF0003A834B835C836D837E838F8398875F9378
:100B00008B818F938A818F9389818F9383E292E087
:100B10009F938F930E940C092FEF8FE797E021504E
:100B200080409040E1F700C000000F900F900F90C0
:100B30000F900F900F9028960FB6F894DEBF0FBE5F
:100B4000CDBFDF91CF910895B998C19A08958827B4
:100B5000B19B8395089587B3886B87BBBE9888B394
:100B6000886188BB81E58DB90895811102C0C49860
:100B70000895813009F00895C3980895811102C045
:100B8000C49A0895813009F00895C39A08958FB9E1
:100B9000779BFECF8FB108958FEF0E94C705089510
:100BA0000F931F93CF93DF93082F192F611549F0EF
:100BB000E801060F111D89910E94C705C017D107D2
:100BC000D1F7DF91CF911F910F9108950F931F934C
:100BD000CF93DF93082F192F611549F0E801060F15
:100BE000111D0E94CC058993C017D107D1F7DF9161
:100BF000CF911F910F91089581E00E94B50585EA7C
:100C00000E94C70581E00E94BE050895CF93C82FBA
:100C1000C29881E00E94B5058C2F0E94C70581E033
:100C20000E94BE05CF910895CF93C82FC29A81E04C
:100C30000E94B5058C2F0E94C70581E00E94BE0569
:100C4000CF9108958770806B0E9406060895CF9318
:100C5000C82F8F700E9406068C2F82958F7080613E
:100C60000E940606CF910895CF93C62F0E942206B8
:100C70008C2F0E942706CF91089560E080E00E94AB
:100C800034060895CF930E94220680E00E94270632
:100C9000C0E880E00E941406C150C111FACFCF9184
:100CA0000895CF93C0E08C2F0E944206CF5FC830DA
:100CB000D1F70E943D06CF910895BA9A8EEA0E941C
:100CC000060685ED0E94060680E80E94060688EA70
:100CD0000E9406068FE30E94060683ED0E94060628
:100CE00080E00E94060680E40E94060680E20E94E0
:100CF000060682E00E94060681EA0E94060688EC4B
:100D00000E9406068AED0E94060682E10E940606FF
:100D100081E80E9406068FEC0E94060689ED0E947B
:100D2000060682E20E9406068BED0E94060680E41B
:100D30000E94060684EA0E94060686EA0E940606CB
:100D40008FEA0E9406062FEF8FE791E02150804046
:100D50009040E1F700C000C00E9451060E943D068D
:100D600008951F93CF93DF9390EE980F9F3508F06F
:100D700080E2805290E0EC01CC0FDD1FCC0FDD1F34
:100D8000C80FD91FC451DE4F15E0FE0184910E94A7
:100D90001406115021961111F8CF80E00E9414061C
:100DA000DF91CF911F910895CF93DF93C82FD92F53
:100DB0008881811531F021960E94B10689918111B7
:100DC000FBCFDF91CF910895EF92FF920F931F9386
:100DD000CF93E82EF92EC62F0E94510681E392E0B0
:100DE0000E94D40660E082E00E94340689E392E02B
:100DF0000E94D406C115A1F08701EC0EF11CEC0E87
:100E0000F11CC2E06AE08C2F0E943406F801819147
:100E100091918F010E94D406CF5F0E151F0591F7A7
:100E2000CF911F910F91FF90EF900895CF93C62F10
:100E300080910401811102C0CF9108950E94340570
:100E4000282F392F2330310511F122303105A1F738
:100E50008091020190910301833091056CF360E071
:100E60000E9434068BE392E00E94D4068091020136
:100E7000909103010197909303018093020160E038
:100E80000E94340689E392E00E94D406D5CF809177
:100E9000020190910301C817190674F260E00E94E4
:100EA00034068BE392E00E94D40680910201909177
:100EB00003010196909303018093020160E00E9478
:100EC000340689E392E00E94D406B6CF1092040162
:100ED0000E945106089580910201909103010297AA
:100EE00008951F93CF93DF9380E00E94B50584E0BF
:100EF0000E94C70580E18A95F1F700C00E94CC05E9
:100F0000182F83E08A95F1F700000E94CC05D82FB6
:100F100083E08A95F1F700000E94CC05C82F80E09D
:100F20000E94BE05612F7D2F8C2FDF91CF911F91E5
:100F30000895CF93DF93D82FC62F80E00E94B50588
:100F400085E00E94C7058DE08A95F1F700008D2F9E
:100F50000E94C7058C2F0E94C70580E00E94BE0535
:100F6000DF91CF9108950DE312E00E947107C62F23
:100F70001F928F931F927F931F926F931F930F93D4
:100F80000E940C09C4FB662760F983E00E94990760
:100F90002FE986E891E0215080409040E1F700C0C1
:100FA00000008DB79EB708960FB6F8949EBF0FBE8F
:100FB0008DBFDBCFAF92BF92CF92DF92EF92FF92C5
:100FC0000F931F93CF93DF93CDB7DEB72A970FB65A
:100FD000F894DEBF0FBECDBF80E00E94B50587E06C
:100FE0000E94C7058DE08A95F1F70000FE01319659
:100FF0007F016E01FBE0CF0ED11C87010E94CC0562
:10100000F80181938F0100C0EC15FD05B9F780E070
:101010000E94BE0500E010E00F2EFCE5AF2EF2E0CE
:10102000BF2EF02DF70181917F011F928F931F92A8
:101030008F931F930F93BF92AF920E940C090F5F83
:101040001F4F0FB6F894DEBF0FBECDBFEC14FD04EA
:1010500049F78EE692E00E9422092A960FB6F8948C
:10106000DEBF0FBECDBFDF91CF911F910F91FF90DB
:10107000EF90DF90CF90BF90AF90089597FB072E31
:1010800016F4009407D077FD09D00E94520807FC9F
:1010900005D03EF4909581959F4F08957095619588
:1010A0007F4F0895AA1BBB1B51E107C0AA1FBB1F9E
:1010B000A617B70710F0A61BB70B881F991F5A95E4
:1010C000A9F780959095BC01CD0108958F929F92CC
:1010D000AF92BF92CF92DF92EF92FF92CF93DF93C6
:1010E000EC01688179818A819B8161157105810597
:1010F000910521F464E279ED8BE597E02DE133EF82
:1011000041E050E00E94270D49015A019B01AC01CA
:10111000A7EAB1E40E94460D6B017C01ACEEB4EF8E
:10112000A50194010E94540DDC01CB018C0D9D1D85
:10113000AE1DBF1DB7FF03C00197A109B04888834A
:101140009983AA83BB839F77DF91CF91FF90EF9024
:10115000DF90CF90BF90AF909F908F9008950E94A6
:101160006608089585E091E00E9466080895A0E071
:10117000B0E08093050190930601A0930701B0931E
:10118000080108950F931F93CF93DF93EC018B0118
:10119000892B51F4672B41F4E0E0F0E0CF01DF91BF
:1011A000CF911F910F9108956EE070E081E090E083
:1011B0000E94390BFC01892B79F380E883830115A8
:1011C000110571F01387028781E88383809174028F
:1011D00090917502892B21F4F0937502E0937402CB
:1011E0002097E1F2D187C0878381826083838091D9
:1011F000760290917702892B89F6F0937702E0933B
:1012000076028091780290917902892B39F6F093D9
:101210007902E0937802C2CFA0E0B0E0E2E1F9E029
:101220000C94690DAE014B5F5F4FFA0161917191B2
:10123000AF0180917602909177020E944E09E2E020
:101240000C94850D0F931F93CF93DF93E09176025B
:10125000F0917702238100E010E021FD0EC00FEF36
:101260001FEFC801DF91CF911F910F91089509954C
:10127000892B11F00FEF1FEFCE01EC0189916091E6
:10128000760270917702DB011896ED91FC91811145
:10129000EECF8AE00995892B21F3E1CFABE0B0E0F6
:1012A000E4E5F9E00C945C0D6C017B018A01FC0122
:1012B00017821682838181FFD9C19AE0592EF601E7
:1012C0002381F70123FD859123FF81917F01811502
:1012D00009F41FC1853239F423FD959123FF9191C3
:1012E0007F01953229F4B60190E00E94990CE7CF76
:1012F00030E0912C612C712CF0E27F1640F59B328E
:10130000D9F058F49032D1F09332F1F09E3299F541
:1013100076FCFFC0689476F806C09D3291F0903359
:10132000C1F4689470F8F70123FD959123FF919122
:101330007F019111E1CF29C0689471F8689472F827
:10134000F2CF689473F8EFCF689474F8ECCF77FC21
:101350001CC080ED890F8A30C8F676FE05C0959CCA
:10136000800D1124982EDFCF659C800D1124682EEE
:10137000689475F8D8CF9C3619F4689477F8D3CF71
:101380009C3409F44BC0983671F2892F8F7D8554B7
:10139000833008F445C0933609F466C0933709F4E6
:1013A00069C0933509F475C0943619F0993609F07F
:1013B0009FC0F80177FE95C06191719181919191E3
:1013C0008F01272D2F76822E97FF09C0909580954B
:1013D000709561957F4F8F4F9F4F689487F82AE0F3
:1013E00030E0AE014F5F5F4F5A010E94C90C8A196D
:1013F000A82E86FEC4C0882D8E7FA91408F0BEC01A
:1014000084FE11C182FC05C1F82DFE7E8F2EB92C01
:10141000882D8678811509F4BFC000C131E083CFE3
:101420003115F9F0085F1F4F8FE389838824839477
:10143000912CAE014F5F5F4F5A01E89477F873FC2F
:1014400003C086149104B0F181149104D1F56114A4
:1014500009F435CFB60180E290E00E94990C6A94BD
:10146000F6CF0C5F1F4FE0CFF801808189830E5FBC
:101470001F4FDCCFF801A190B1908F01692D70E072
:1014800076FC02C06FEF7FEFC5010E948E0C4C010D
:10149000D4CFF801A190B1908F01692D70E076FC56
:1014A00002C06FEF7FEFC5010E947C0C4C01689475
:1014B00077F8C5CFB60180E290E00E94990C6A945B
:1014C000C0CFF50177FC859177FE81915F01B60170
:1014D00090E00E94990C61106A94F1E08F1A9108D3
:1014E000B3CF61917191072E000C880B990B68CFD7
:1014F000872CE89484F82AE030E0953739F1572DAD
:10150000597F852E903799F058F49835A9F09F3679
:10151000D9F0F601868197812B96EFE00C94780D37
:101520009837B9F774FC05C020E130E00FC068942B
:1015300084F8689482F8F8CF74FE03C0872D866023
:10154000882E20E132E002C028E030E0F80187FE7A
:1015500010C061917191819191918F01FE0131963D
:101560005F01AF010E94C90C8A19A82EE89487F880
:1015700040CF6191719180E090E0EFCF882EBA2C3E
:1015800084FE46CFFE01EA0DF11D8081803309F013
:1015900043C0282D297E822E83FC0EC080FE4FC0C2
:1015A0009A2CB61418F4960C9B18B62C862D8B1911
:1015B0006B1408F480E0B80EB61408F042C06B1843
:1015C00084FE41C0B60180E390E00E94990C82FE47
:1015D00009C088E590E081FC02C088E790E0B60190
:1015E0000E94990CA914D8F1AA94B12C4FEFA41A17
:1015F000B40ACE0101964C01A80EB91EF5018291E4
:101600005F01B60190E00E94990C8A149B04B1F727
:101610001ECFB92C882EB6CF82FC02C0B394BCCFAB
:10162000B394B394B9CFB92C882EF2CEB60180E230
:1016300090E00E94990C73947614C0F3B7CF7B2C82
:10164000FBCF612CBDCF882D8678811559F280E2C1
:1016500081FC8BE287FC8DE2B60190E0C1CFB60140
:1016600080E390E00E94990C9A94BCCF8FEF9FEF9B
:1016700053CF0F931F93CF93DF93869F8001879F54
:10168000100D969F100D1124C8010E94550BEC01FE
:10169000009729F0A80160E070E00E94870CCE015D
:1016A000DF91CF911F910F9108950F931F93CF93C7
:1016B000DF939C01029710F422E030E0E0917A027F
:1016C000F0917B0280E090E0A0E0B0E0309791F4F0
:1016D000009709F448C0821B930B84309105D0F524
:1016E0008A819B816115710581F1FB01938382835E
:1016F000FE0111C0408151810281138142175307BD
:10170000D8F04217530799F4109761F012960C9392
:10171000129713961C933296CF01DF91CF911F91B0
:101720000F91089500937A0210937B02F4CF0097F3
:1017300051F04817590738F0AC01DB01CA01BD016F
:10174000DF01F801C3CFEF01F9CF90937B028093C3
:101750007A02CECFFE01E80FF91F21933193029751
:1017600099838883D9CF40917C0250917D024115A5
:10177000510541F440910B0150910C0150937D02B1
:1017800040937C028091090190910A01009741F4F5
:101790008DB79EB760910D0170910E01861B970B5E
:1017A0004817590708F0B8CF841B950B8217930789
:1017B00008F4B2CFB9016E5F7F4F8617970708F420
:1017C000ABCF640F751F70937D0260937C02FA01AA
:1017D00021933193A1CFCF93DF939C010097E9F040
:1017E000FC01329713821282C0917A02D0917B025F
:1017F000DE0180E090E02097A1F480819181280FA4
:10180000391F80917C0290917D028217930709F025
:1018100068C0F0937D02E0937C02DF91CF91089540
:10182000DA01AE17BF0708F042C012964D915C91E5
:101830001397CD014115510599F7DC011396FC93DF
:10184000EE9312974D915D919D01240F351FE21784
:10185000F30781F4208131812E5F3F4F240F351F24
:10186000DC0111963C932E932281338113963C9395
:101870002E931297E0E0F0E08A819B810097B1F50A
:10188000DE018D919D918A0F9B1F20917C023091EA
:101890007D022817390709F6309759F510927B0217
:1018A00010927A02D0937D02C0937C02B6CFB383AC
:1018B000A28340815181240F351FA217B30771F411
:1018C0004E5F5F4F2D913C911197240F351F31834F
:1018D000208312962D913C9133832283009709F047
:1018E000ACCFF0937B02E0937A0297CFFE01EC013C
:1018F000C3CF13821282D6CFFC0105906150704095
:101900000110D8F7809590958E0F9F1F0895DC01E8
:1019100001C06D9341505040E0F70895FC016150C3
:10192000704001900110D8F7809590958E0F9F1F01
:1019300008950F931F93CF93DF93182F092FEB0177
:101940008B8181FD09C01FEF0FEF812F902FDF9159
:10195000CF911F910F91089582FF14C02E813F8176
:101960008C819D81281739073CF4E881F981CF01EA
:1019700001969983888310838E819F8101969F832E
:101980008E83E3CFE885F985812F0995892BA1F313
:10199000DACFFA01AA27283051F1203181F1E894F9
:1019A0006F936E7F6E5F7F4F8F4F9F4FAF4FB1E052
:1019B0003ED0B4E03CD0670F781F891F9A1FA11D4D
:1019C000680F791F8A1F911DA11D6A0F711D811D4E
:1019D000911DA11D20D009F468943F912AE0269F13
:1019E00011243019305D3193DEF6CF010895462F72
:1019F0004770405D4193B3E00FD0C9F7F6CF462F53
:101A00004F70405D4A3318F0495D31FD40524193BB
:101A100002D0A9F7EACFB4E0A69597958795779578
:101A20006795BA95C9F700976105710508959B01FF
:101A3000AC010A2E06945795479537952795BA9588
:101A4000C9F7620F731F841F951FA01D0895052EEF
:101A500097FB1EF400940E943E0D57FD07D00E9494
:101A6000900D07FC03D04EF40C943E0D509540951C
:101A7000309521953F4F4F4F5F4F0895909580953A
:101A8000709561957F4F8F4F9F4F08950E94B20DC3
:101A9000A59F900DB49F900DA49F800D911D1124C2
:101AA0000895B7FF0C94460D0E94460D821B930BC0
:101AB00008952F923F924F925F926F927F928F92F2
:101AC0009F92AF92BF92CF92DF92EF92FF920F93CD
:101AD0001F93CF93DF93CDB7DEB7CA1BDB0B0FB6D7
:101AE000F894DEBF0FBECDBF09942A883988488894
:101AF0005F846E847D848C849B84AA84B984C8842A
:101B0000DF80EE80FD800C811B81AA81B981CE0F20
:101B1000D11D0FB6F894DEBF0FBECDBFED01089505
:101B2000A1E21A2EAA1BBB1BFD010DC0AA1FBB1FE1
:101B3000EE1FFF1FA217B307E407F50720F0A21B53
:101B4000B30BE40BF50B661F771F881F991F1A94C0
:101B500069F760957095809590959B01AC01BD01EA
:101B6000CF010895A29FB001B39FC001A39F700D44
:101B7000811D1124911DB29F700D811D1124911D95
:061B80000895F894FFCF68
:101B860000100200010100000000007E0220002F6C
:101B96000132013601486569210076616C672031A2
:101BA6000076616C6720320076616C672033004AEC
:101BB60041004E4549004B414E534B4A4500537434
:101BC600617274696E67205352414D207465737457
:101BD6002E2E2E0057726974652070686173652019
:101BE6006572726F723A206578745F72616D5B25FB
:101BF60034645D203D2025303258202873686F7587
:101C06006C642062652025303258290A00526574BA
:101C160072696576616C20706861736520657272A1
:101C26006F723A206578745F72616D5B2534645D0E
:101C3600203D2025303258202873686F756C64204B
:101C460062652025303258290A005352414D2074CE
:101C560065737420636F6D706C6574656420776955
:101C66007468200A253464206572726F7273206965
:101C76006E20777269746520706861736520616E85
:101C860064200A253464206572726F727320696E4F
:101C96002072657472696576616C2070686173651F
:101CA6000A0A00583A20256420593A2025640D0A6C
:101CB6000048656973616E6E003E002000726967B8
:101CC60068743A2025752C206C6566743A20257553
:101CD6002C206E61763A2025750D0A0025753A206E
:101CE60025752028307825303258290D0A000D0038
:00000001FF
