S01700004763634170706C69636174696F6E312E737265635B
S11300000C9438000C9442000C9442000C9442006E
S11300100C9442000C9442000C9442000C94420054
S11300200C9442000C9442000C9442000C94420044
S11300300C9442000C9442000C9442000C94420034
S11300400C9442000C9442000C9442000C94420024
S11300500C9442000C9442000C9442000C94420014
S11300600C9442000C9442000C9442000C94420004
S113007011241FBECFEFD4E0DEBFCDBF0E945300DA
S11300800C946B000C94000090BD89B988E18AB986
S11300908EE880BD08955D9BFECF8CB908955F9B6B
S11300A0FECF8CB108958FE190E00E94440081E678
S11300B00E944B0081E40E944B002FEF8FEF9EE0E3
S11300C0215080409040E1F700C000000E944F00A2
S10D00D00E944B00EFCFF894FFCF1D
S9030000FC
